:1000000017C026C0A7C024C010C122C021C020C074
:100010001FC01EC01DC01CC029C01AC019C00102CB
:1000200004081020010101010101003600380037E9
:1000300011241FBECFE5D2E0DEBFCDBF20E0A0E699
:10004000B0E001C01D92AD36B207E1F727D22AC257
:10005000D7CF379860E080E090D160E080E0C4D1F5
:1000600061E083E08AD161E081E087C11F920F9255
:100070000FB60F9211248F9381B5806481BD8F914B
:100080000F900FBE0F901F90189590E29BBFA89AFB
:10009000379883FF02C098E201C098E08770892BEF
:1000A00028E130E00FB6F894A89521BD0FBE81BDC0
:1000B00081B5806481BD85B7877E806185BF85B746
:1000C000806285BF78948895F894A89885B78F7DCD
:1000D00085BF7894089561E083E086D161E081E096
:1000E00083D160E47FE180E090E00AD160E083E0CA
:1000F0007BD160E081E078D11092600010926100C5
:100100001092620010926300089588E10FB6F8948F
:1001100081BD11BC0FBE80E096D1892B61F061E0FA
:1001200083E062D161E081E05FD164E670E080E06D
:1001300090E0E6D0F0CF60E083E056D160E081E06F
:1001400053D11092600010926100109262001092E0
:10015000630008951F920F920FB60F9211242F93F0
:100160003F934F935F936F937F938F939F93AF933F
:10017000BF93EF93FF9362E370E080E090E0C0D024
:10018000C4DFFF91EF91BF91AF919F918F917F91CC
:100190006F915F914F913F912F910F900FBE0F90F4
:1001A0001F90189561E081E01FD162E070E080E06F
:1001B00090E0A6D060E081E017D180E044D1892BA7
:1001C00009F0A3DF8091600090916100A09162002E
:1001D000B091630080319E40A105B10508F07BDF3E
:1001E00089E053DF8091600090916100A0916200EE
:1001F000B09163000196A11DB11D809360009093A2
:100200006100A0936200B0936300089583B7887F74
:1002100083BF8AB58C7F81608ABD83B7877F83BFA8
:1002200083B7887F836083BF089578941F920F926D
:100230000FB60F9211242F933F938F939F93AF93F9
:10024000BF938091650090916600A0916700B09186
:100250006800309164002CE7230F2D3728F02FEF32
:10026000230F0196A11DB11D2093640080936500AA
:1002700090936600A0936700B09368008091690036
:1002800090916A00A0916B00B0916C000196A11D45
:10029000B11D8093690090936A00A0936B00B093A6
:1002A0006C00BF91AF919F918F913F912F910F90D3
:1002B0000FBE0F901F9018953FB7F894809169007A
:1002C00090916A00A0916B00B0916C002FB508B6B8
:1002D00002FE05C02F3F19F00196A11DB11D3FBFC1
:1002E0006627782F892F9A2F620F711D811D911D0E
:1002F00042E0660F771F881F991F4A95D1F708952E
:10030000CF92DF92EF92FF92CF93DF936B017C014C
:10031000D3DFEB01C114D104E104F10471F0CCDFAF
:100320006C1B7D0B683E7340A8F381E0C81AD108AE
:10033000E108F108C851DC4FEDCFDF91CF91FF907C
:10034000EF90DF90CF900895789480B7806880BF59
:1003500080B7806480BF8CB580648CBD8FEF8DBD0D
:1003600080B7807F876080BF89B7846089BF4EDF98
:1003700086B1876086B9379A0895CF93DF9390E06E
:10038000FC01E25EFF4F2491FC01EC5DFF4F849184
:10039000882339F190E0FC01E25DFF4FA491B0E0C9
:1003A000FC01E45DFF4F8491611106C09FB7F89492
:1003B0008C912095822313C0623069F4C82FD0E05D
:1003C0009FB7F8948C91322F309583238C9388813A
:1003D000822B888305C09FB7F8948C91822B8C93D5
:1003E0009FBFDF91CF910895A82FB0E0FD01E25E9D
:1003F000FF4F9491FD01EC5DFF4FE491EE2311F16D
:10040000811103C08AB58F7304C0813021F48AB58D
:100410008F7C8ABD05C0843019F48CB58F7C8CBD6F
:10042000F0E0E45DFF4FA491B0E02FB7611105C08B
:10043000F8948C919095892303C0F8948C91892B22
:100440008C932FBF0895282F30E0F901E25EFF4F13
:100450009491F901EC5DFF4FE491EE23E1F08111FD
:1004600003C08AB58F7304C0813021F48AB58F7CB4
:100470008ABD05C0843019F48CB58F7C8CBDF0E04A
:10048000E65DFF4FE491F0E02081292381E090E0D8
:1004900021F480E0089580E090E0089555DFD9DDF3
:0804A00081DEFECFF894FFCFCE
:00000001FF
